:100000000C942A000C943C000C943C000C943C0092
:100010000C943C000C943C000C943C000C943C0070
:100020000C943C000C943C000C943C000C943C0060
:100030000C943C000C943C000C943C000C943C0050
:100040000C943C000C943C000C943C000C943C0040
:100050000C943C0011241FBECFE5D8E0DEBFCDBF1D
:1000600010E0A0E6B0E001C01D92A038B107E1F7B2
:100070000E9462000C94D0040C940000F8941ABA08
:100080001BBA8FE084BB87BB81EA8FBD85E08EBD44
:1000900084EB90E09BBD8ABD99BD88BD80E381BBA8
:1000A00016B880E287B980E888B986E886B978947E
:1000B00008958770806287B9369A349BFECF85B1E8
:1000C000349A08955F926F927F928F929F92AF922F
:1000D000BF92CF92DF92EF92FF920F931F93CF9335
:1000E000DF930E943E008FE085BB80E593EC20E922
:1000F00031E0F9013197F1F70197D9F715BA80E1AD
:1001000097E220E931E0F9013197F1F70197D9F74A
:1001100080E00E94590005E610E08093650010928F
:10012000660081E00E94590080936700F801138205
:1001300082E00E94590080936900F801158283E0F3
:100140000E94590080936B00F801178284E00E949E
:10015000590080936D00F801118685E00E945900D6
:1001600080936F00F80113868FE085BB80E593ECE8
:1001700020E931E0F9013197F1F70197D9F715BA84
:1001800080E00E94590001E710E080937100109216
:10019000720081E00E94590080937300F80113827D
:1001A00082E00E94590080937500F801158283E077
:1001B0000E94590080937700F801178284E00E9422
:1001C000590080937900F801118685E00E9459005A
:1001D000082F10E010937C0000937B008091670053
:1001E000909168002091650030916600820F931F06
:1001F0002091690030916A00820F931F20916B005B
:1002000030916C00820F931F20916D0030916E0031
:10021000820F931F20916F0030917000820F931F07
:1002200066E070E00E94BC04FB0170937E00609366
:100230007D00809173009091740020917100309145
:100240007200820F931F2091750030917600820F0B
:10025000931F2091770030917800820F931F209197
:10026000790030917A00820F931F800F911F66E012
:1002700070E00E94BC0470936300609362006E0F94
:100280007F1F76956795709361006093600020E111
:1002900037E280E991E0FC013197F1F721503040DD
:1002A000D1F780E090E00E94A3035B016C0120E0A5
:1002B00030E04AE755E40E9431047B018C010E9442
:1002C00077033B01C0E0D0E05524539470E9872EBA
:1002D00071E0972E55BAC801B70120E030E040E840
:1002E0005FE30E94730387FD20C0C801B70120E0CF
:1002F0003FEF4FE757E40E942D04181614F09301C6
:1003000016C0C601B50120E030E040E251E40E9491
:1003100031040E94770305C0C4010197F1F76150D1
:10032000704061157105C1F705C021E030E0C901D9
:100330000197F1F715BAC801B70120E030E040E8B5
:100340005FE30E94730387FD20C0C801B70120E06E
:100350003FEF4FE757E40E942D04181614F0930165
:1003600016C0C601B50120E030E040E251E40E9431
:1003700031040E94770305C0C4010197F1F7615071
:10038000704061157105C1F705C021E030E0C90179
:100390000197F1F72196C531D10509F09BCF6FE0A8
:1003A000762E08E05AE0652E46E0542E81E00E9449
:1003B000590090E0209160003091610028173907C2
:1003C00020F431E0832E912C0DC081E00E94590071
:1003D00090E020916000309161008217930710F443
:1003E0008824992482E00E94590090E020916000C6
:1003F000309161002817390720F42AE0A22EB12C91
:100400000DC082E00E94590090E020916000309180
:1004100061008217930710F4AA24BB2483E00E9492
:10042000590090E020916000309161002817390751
:1004300020F494E6C92ED12C0DC083E00E9459000F
:1004400090E020916000309161008217930710F4D2
:10045000CC24DD2484E00E94590090E020916000CB
:10046000309161002817390728F488EEE82E83E0E0
:10047000F82E0DC084E00E94590090E020916000A9
:10048000309161008217930710F4EE24FF2480E07E
:100490000E94590090E0209160003091610028177F
:1004A000390718F080E00E94590085E00E94590049
:1004B00090E020916000309161002817390718F012
:1004C00085E00E945900E501C80DD91DCC0DDD1D48
:1004D000CE0DDF1D80E00E94590010E090E02091D9
:1004E0006000309161002817390708F411E085E0B9
:1004F0000E945900112309F44DC0282F30E080914B
:100500006000909161008217930708F043C015BA0C
:10051000CF36D10509F4A3C0C037D105C0F4CC3023
:10052000D10540F4CA30D10508F099C0229708F0EF
:100530003DCF95C0C034D10508F438CFC234D105C1
:1005400008F492C0CE36D10509F030CF88C0F3E070
:10055000C43FDF0758F483E0C23FD80708F07FC0EC
:10056000E3E0C83EDE0709F05FC07EC084E0CD3422
:10057000D80709F479C0E4E0CE34DE0728F4CC547F
:10058000D44009F013CF70C084E0C635D80709F015
:1005900061C06AC080E00E94590010E090E02091A4
:1005A0006000309161008217930708F411E085E044
:1005B0000E945900112309F45BC0282F30E080917C
:1005C0006000909161002817390708F051C075BA92
:1005D000CF36D10509F448C0C037D105C8F4CC30B6
:1005E000D10550F4CA30D10508F03EC02097B9F1CA
:1005F000219709F0DBCE38C0C034D10508F4D6CE3F
:10060000C234D10560F1CE36D10509F0CFCE2CC071
:10061000F3E0C43FDF0768F483E0C23FD80720F56A
:10062000E3E0C83EDE07D9F0C95ED34009F0BECE94
:100630001DC084E0CD34D807A9F0E4E0CE34DE0755
:1006400028F4CC54D44009F0B1CE09C084E0C635BA
:10065000D80729F0C755D44009F0A8CE07C082E0DA
:1006600088BBA4CE58BAA2CE08BBA0CE68BA9ECE94
:1006700080E00E94590010E090E0209160003091ED
:1006800061008217930708F411E085E00E94590089
:10069000112349F0282F30E0809160009091610093
:1006A00082179307E8F080E00E94590010E090E084
:1006B00020916000309161002817390708F411E09B
:1006C00085E00E945900112309F470CE282F30E0F4
:1006D00080916000909161002817390708F066CE7C
:1006E00015BA75BA63CE6CD008F481E0089594D041
:1006F00088F09F5790F0B92F9927B751A0F0D1F00B
:10070000660F771F881F991F1AF0BA95C9F712C094
:10071000B13081F09BD0B1E0089598C0672F782F59
:100720008827B85F39F0B93FCCF386957795679500
:10073000B395D9F73EF490958095709561957F4F6C
:100740008F4F9F4F0895E89409C097FB3EF4909512
:100750008095709561957F4F8F4F9F4F9923A9F09A
:10076000F92F96E9BB279395F69587957795679529
:10077000B795F111F8CFFAF4BB0F11F460FF1BC06D
:100780006F5F7F4F8F4F9F4F16C0882311F096E900
:1007900011C0772321F09EE8872F762F05C06623AE
:1007A00071F096E8862F70E060E02AF09A95660F67
:1007B000771F881FDAF7880F9695879597F9089520
:1007C000990F0008550FAA0BE0E8FEEF1616170662
:1007D000E807F907C0F012161306E407F50798F0CA
:1007E000621B730B840B950B39F40A2661F0232BE3
:1007F000242B252B21F408950A2609F4A140A6955F
:100800008FEF811D811D089557FD9058440F551F8E
:1008100059F05F3F71F04795880F97FB991F61F082
:100820009F3F79F087950895121613061406551FF9
:10083000F2CF4695F1DF08C0161617061806991F65
:10084000F1CF86957105610508940895E894BB275A
:1008500066277727CB0197F90895B2DF08F48FEF69
:1008600008950BD078C069D028F06ED018F0952389
:1008700009F05AC05FC01124EACFC6DFA0F3959FEC
:10088000D1F3950F50E0551F629FF001729FBB2777
:10089000F00DB11D639FAA27F00DB11DAA1F649F23
:1008A0006627B00DA11D661F829F2227B00DA11DD6
:1008B000621F739FB00DA11D621F839FA00D611D5C
:1008C000221F749F3327A00D611D231F849F600D7D
:1008D000211D822F762F6A2F11249F5750408AF0B6
:1008E000E1F088234AF0EE0FFF1FBB1F661F771F42
:1008F000881F91505040A9F79E3F510570F014C0D9
:10090000A6CF5F3FECF3983EDCF38695779567952D
:10091000B795F795E7959F5FC1F7FE2B880F911D5F
:100920009695879597F9089597F99F6780E870E005
:1009300060E008959FEF80EC089500240A94161655
:10094000170618060906089500240A9412161306BD
:10095000140605060895092E0394000C11F488234B
:1009600052F0BB0F40F4BF2B11F460FF04C06F5F67
:100970007F4F8F4F9F4F0895AA1BBB1B51E107C0AC
:10098000AA1FBB1FA617B70710F0A61BB70B881F1F
:10099000991F5A95A9F780959095BC01CD010895AE
:0409A000F894FFCFF9
:00000001FF
