:1000000012C019C018C017C016C015C014C013C044
:1000100012C011C010C00FC00EC00DC00CC00BC06C
:100020000AC009C008C011241FBECFE5D4E0DEBF5E
:10003000CDBF02D026C0E4CF18BA17BA15BA14BA89
:1000400012BA80EF81BB30E920E840E183B390E051
:100050008E7090708830910571F08930910534F47C
:100060008230910551F0069751F407C08C3091050C
:1000700011F00E9721F422BBE9CF42BBE7CF32BB90
:06008000E5CFF894FFCF6C
:00000001FF
