:1000000012C024C023C022C021C020C01FC01EC0F7
:100010001DC01CC01BC01AC019C018C017C016C014
:1000200015C014C013C011241FBECFE5D4E0DEBF3D
:10003000CDBF10E0A0E6B0E0E0E9F2E002C005903C
:100040000D92AC36B107D9F76CD020C1D9CF1BB80F
:100050001BB886E080BD87E689B910BC88E18AB903
:1000600008955F9BFECF8BB18CB108955D9BFECF51
:100070008CB90895FC0104C05D9BFECF31968CB90C
:1000800084918823C9F70895FC0104C05D9BFECFCD
:1000900031968CB980818823C9F70895DF93CF9377
:1000A000CDB7DEB72B970FB6F894DEBF0FBECDBF2E
:1000B000813011F494E005C0823011F498E001C061
:1000C00092E0DE011196E0E6F0E08BE001900D9207
:1000D0008150E1F79E012E5F3F4F842F8F70E92FF3
:1000E000F0E08A3020F4E20FF31F805D03C0E20FDE
:1000F000F31F895C8083915041F084E07695679589
:10010000579547958A95D1F7E8CFCE010196BCDF88
:100110002B960FB6F894DEBF0FBECDBFCF91DF9107
:100120000895AF92BF92CF92DF92EF92FF920F931A
:100130001F93CF93DF938BDF8FE184BBBB9A85E066
:1001400083BD85B5806285BD85B5886485BD85B56F
:10015000826085BD15BA81E0A82EB12C01E0C02EC9
:10016000D12C11E0E12EF12C01E010E0C1E0D0E053
:10017000A0E0B0E0E0E0F0E060E070E040E050E0FF
:1001800020E030E05F9BFECF8BB18CB1843609F468
:1001900044C0853640F4823601F1833670F58136ED
:1001A00009F069C00AC0863609F450C0863608F4E2
:1001B00041C0873609F05FC053C081E0A816B10482
:1001C00031F0B1E0AB2EB12CA0E0B0E054C0A2E021
:1001D000AA2EB12CA1E0B0E04EC081E0C816D10437
:1001E00031F0F1E0CF2ED12CE0E0F0E044C0E2E0CD
:1001F000CE2ED12CE2E0F0E03EC081E0E816F10422
:1002000031F061E0E62EF12C60E070E034C092E065
:10021000E92EF12C64E070E02EC00130110529F0C8
:1002200001E010E040E050E026C002E010E048E0CD
:1002300050E021C0219729F0C1E0D0E020E030E07B
:100240001AC0C2E0D0E020E130E015C083B58F3F96
:1002500019F083B58E5C0EC083B58F3F61F409C081
:1002600083B5863018F083B5825304C083B58530DA
:1002700011F483B583BDCF018A0F9B1F860F971F93
:10028000840F951F820F931F85BB7CCFF894FFCFFF
:0C029000307820202020202020200000BA
:00000001FF
