:1000000012C021C020C01FC01EC01DC01CC01BC00C
:100010001AC019C018C017C016C015C014C013C02C
:1000200012C011C010C011241FBECFE5D4E0DEBF46
:10003000CDBF10E0A0E6B0E001C01D92A436B1072C
:10004000E1F71CD034C0DCCF86E088BB089589E09E
:1000500088BB089585E088BB089586E088BB089535
:1000600086E886B9089590E697B997B1982B97B925
:10007000369A3699FECF84B195B10895BB9A8FEF29
:1000800083BD85B5806285BD85B5886485BD85B530
:10009000826085BD80E0E7DF81E0E5DF82E0E3DFCD
:1000A00083E0E1DF84E0DFDF85E0DDDFFFCFF89490
:0200B000FFCF80
:00000001FF
