:100000000C944A000C945F000C945F000C945F0009
:100010000C945F000C945F000C945F000C945F00E4
:100020000C945F000C945F000C945F000C945F00D4
:100030000C945F000C945F000C945F000C945F00C4
:100040000C945F000C945F000C945F000C945F00B4
:100050000C945F009F009F009F009F009F009F00E7
:100060009F009F009B009B009B009B009D009F00AA
:100070009F009F009D009B009F009B009D009B0098
:100080009D009F009D009B009B009B009D009D008C
:100090009D009F0011241FBECFE5D8E0DEBFCDBF7D
:1000A00010E0A0E6B0E0E6E4F1E002C005900D92B9
:1000B000A036B107D9F70E9473000C94A1000C94EC
:1000C000000086E085BB089589E085BB089582E045
:1000D00085BB089588E085BB08958AE085BB0895B7
:1000E00086E085BB089581EA8FBD85E08EBD86E9F7
:1000F00090E09BBD8ABD99BD88BD80E381BB1ABAE3
:100100008FE18BBB8FE084BB26E049E03AE089B306
:1001100090E0A0E0B0E08F719070A070B070FC0132
:1001200080329105A0F7E65DFF4FEE0FFF1F0590AF
:10013000F491E02D099435BBEACF45BBE8CF25BB50
:06014000E6CFF894FFCFAA
:00000001FF
