:1000000012C024C023C022C021C020C01FC01EC0F7
:100010001DC01CC01BC01AC019C018C017C016C014
:1000200015C014C013C011241FBECFE5D4E0DEBF3D
:10003000CDBF10E0A0E6B0E0EAEBF1E002C0059031
:100040000D92AC36B107D9F76CD0B5C0D9CF1BB87B
:100050001BB886E080BD8DE489B910BC88E18AB9FF
:1000600008955F9BFECF8BB18CB108955D9BFECF51
:100070008CB90895FC0104C05D9BFECF31968CB90C
:1000800084918823C9F70895FC0104C05D9BFECFCD
:1000900031968CB980818823C9F70895DF93CF9377
:1000A000CDB7DEB72B970FB6F894DEBF0FBECDBF2E
:1000B000813011F494E005C0823011F498E001C061
:1000C00092E0DE011196E0E6F0E08BE001900D9207
:1000D0008150E1F79E012E5F3F4F842F8F70E92FF3
:1000E000F0E08A3020F4E20FF31F805D03C0E20FDE
:1000F000F31F895C8083915041F084E07695679589
:10010000579547958A95D1F7E8CFCE010196BCDF88
:100110002B960FB6F894DEBF0FBECDBFCF91DF9107
:10012000089595DF14BA15BAA1E620E335E7F2E6A3
:10013000E3E674E665E657E646E683B3837081300E
:1001400021F45D9BFECFACB907C083B383708230CE
:1001500031F45D9BFECFFCB9C9010197F1F783B380
:100160008C70843021F45D9BFECFECB90EC083B35C
:100170008C70883021F45D9BFECF7CB906C083B3C0
:100180008C7031F45D9BFECF6CB9C9010197F1F71A
:1001900083B38073803221F45D9BFECF5CB907C0CE
:1001A00083B38073803149F65D9BFECF4CB9C901A2
:0A01B0000197F1F7C2CFF894FFCFDA
:0C01BA0030782020202020202020000091
:00000001FF
