:100000000C942A000C9434000C9434000C943400AA
:100010000C9434000C9434000C9434000C94340090
:100020000C9434000C9434000C9434000C94340080
:100030000C9434000C9434000C9434000C94340070
:100040000C9434000C9434000C9434000C94340060
:100050000C94340011241FBECFE5D8E0DEBFCDBF25
:100060000E9442000C946F000C94000086E088BB54
:10007000089589E088BB089585E088BB089586E0EF
:1000800088BB08951ABA87E08BBB8FE087BB45E039
:1000900039E026E089B390E0877090708330910555
:1000A000E1F0843091054CF481309105B1F082305B
:1000B00091057CF4892B89F0EDCF8530910549F0CD
:1000C0008530910544F08630910529F0079711F7A6
:1000D00004C048BBDFCF38BBDDCF28BBDBCFF894F3
:0200E000FFCF50
:00000001FF
