:100000000C946A000C9487000C9487000C94870071
:100010000C9487000C9487000C9487000C94870044
:100020000C9487000C9487000C9487000C94870034
:100030000C9487000C9487000C9487000C94870024
:100040000C9487000C9487000C9487000C94870014
:100050000C9487007F0185018B01910197019D011F
:10006000A301A901AF01BB01C101CD01D301D90198
:10007000DF01E501F101FA0103020C0215021E0283
:100080002702300239023F024B02510260026F0226
:10009000810295026A037003760378037A037C0376
:1000A0007E03800382038403860388038A038C0310
:1000B0008E03900392039403960398039A039C0380
:1000C0009E03A003A203A403A603A803AA03AC03F0
:1000D000AE03B20311241FBECFE5D8E0DEBFCDBF13
:1000E00010E0A0E6B0E0EAEDF7E002C005900D9266
:1000F000A03AB107D9F710E0A0EAB0E001C01D9224
:10010000A43AB107E1F70E9437030C94EB030C9477
:1001100000002091A00090E002C09F5F2BE09817A4
:10012000E0F32093A0009093A1000895C59888EC77
:100130000E948900C59A88EC0E948900C59808959C
:100140001F93182F88B38F7C88BB812F82958F7067
:1001500088BB0E9496001F7018BB0E9496001F91DA
:1001600008951F93182F80E188BB18BA812F8295BC
:100170008F70806188BB0E9496001F70106118BB51
:100180000E9496001F910895CF93DF93EC0103C066
:100190000E94B100219688818823D1F7DF91CF9109
:1001A0000895EF92FF920F931F93182F64E60E9419
:1001B000B803482F282F30E08CE99FEF289F70016B
:1001C000299FF00C389FF00C1124C701810F911D5D
:1001D0006AE070E00E94C403062F842F805D0E94B5
:1001E000B100802F805D0E94B100105D1E0D86EF72
:1001F0009FEF089F002D1124802F810F0E94B100D6
:100200001F910F91FF90EF900895882329F4862F76
:1002100080580E94A0000895813021F4862F8054D8
:100220000E94A00008950AC020E030E000002F5F87
:100230003F4F4CE02C3C3407C9F701970097A1F7DA
:1002400008951F938FE387BB84E190E00E94130120
:1002500013E018BB0E94960085E090E00E94130115
:1002600018BB0E94960081E090E00E94130118BB29
:100270000E94960081E090E00E94130182E088BB1A
:100280000E94960085E090E00E94130188E20E949F
:10029000A00081E090E00E94130188E00E94A0008D
:1002A00081E090E00E94130181E00E94A00081E0C3
:1002B00090E00E94130186E00E94A00081E090E09F
:1002C0000E9413018CE00E94A00082E090E00E9456
:1002D00013011F91089581E00E94A000089580936A
:1002E000A300E82FF0E0E032F10508F031C1E65D4F
:1002F000FF4FEE0FFF1F0590F491E02D099480E071
:1003000065E00E94050180E071C080E065E00E9428
:10031000050180E074C080E065E00E94050180E096
:1003200077C080E065E00E94050180E07AC080E04F
:1003300065E00E94050180E07DC080E065E00E94EC
:10034000050180E080C080E065E00E94050180E05A
:1003500083C080E065E00E94050180E086C080E007
:1003600065E00E94050180E00E94B10081E00E94EA
:10037000B10080E0B0C080E065E00E94050180E04F
:1003800083C080E065E00E94050180E00E94B1002A
:1003900081E00E94B10080E0BFC080E065E00E9483
:1003A000050180E083C080E065E00E94050180E0F7
:1003B0008CC080E065E00E94050180E095C080E08F
:1003C00065E00E94050180E0A1C080E065E00E9438
:1003D000050180E00E94B10081E00E94B10081E04F
:1003E0006BC080E065E00E94050181E00E94B100E1
:1003F00080E0BDCF80E065E00E94050181E00E94C1
:10040000B10080E044C080E065E00E94050181E029
:100410000E94B10080E0BDCF80E065E00E94050150
:1004200081E00E94B10080E044C080E065E00E946D
:10043000050181E00E94B10080E04AC080E065E0F3
:100440000E94050181E00E94B10080E050C080E080
:1004500065E00E94050181E00E94B10080E059C082
:1004600080E065E00E94050181E00E94B10080E02B
:10047000B4CF80E065E00E94050181E075CF80E0A7
:1004800065E00E94050181E00E94B10081E00E94C8
:10049000B10080E02FC080E065E00E94050181E0AE
:1004A00075CF80E065E00E94050181E00E94B10007
:1004B00081E00E94B10080E00E94B10081E01DC097
:1004C00080E065E00E94050181E00E94B10081E0CA
:1004D0000E94B10081E00E94B10080E020C080E075
:1004E00065E00E94050181E00E94B10081E00E9468
:1004F000B10081E00E94B10080E00E94B10081E083
:1005000011C080E065E00E94050181E00E94B10019
:1005100081E00E94B10081E00E94B10081E00E9470
:10052000B10080E00E94B100089580E065E00E9483
:10053000050181E00E94B10081E00E94B10081E0EC
:100540000E94B10081E00E94B10081E00E94B100F0
:1005500008958FEF90E09BBD8ABD99BD88BD81E075
:1005600064E00E9405018AB59BB50E94D10081E03C
:1005700068E00E94050188B599B50E94D1000895F0
:100580008FEF90E09BBD8ABD99BD88BD81E064E09E
:100590000E9405018AB59BB50E94D10081E068E008
:1005A0000E94050188B599B50E94D10008958FEF8A
:1005B00090E09BBD8ABD89E190E099BD88BD81E056
:1005C00064E00E9405018AB59BB50E94D10081E0DC
:1005D00068E00E94050188B599B50E94D100089590
:1005E00089E190E09BBD8ABD8FEF90E099BD88BD09
:1005F00081E064E00E9405018AB59BB50E94D100AC
:1006000081E068E00E94050188B599B50E94D1009B
:1006100008958FEF90E09BBD8ABD99BD88BD81E0B4
:1006200064E00E9405018AB59BB50E94D10081E07B
:1006300068E00E94050188B599B50E94D10008952F
:100640008FEF90E09BBD8ABD99BD88BD81E064E0DD
:100650000E9405018AB59BB50E94D10081E068E047
:100660000E94050188B599B50E94D1000895CF93E5
:10067000DF9381EA8FBD85E08EBD82E390E09BBD74
:100680008ABD99BD88BD80E381BB1ABA8FE18BBB5F
:100690000E94210180E40E94A000C0E6D0E0899180
:1006A0000E94B10080E0C03AD807C9F789B390E052
:1006B000A0E0B0E08F719070A070B070FC0180324B
:1006C0009105A0F7E65BFF4FEE0FFF1F0590F49139
:1006D000E02D099480E00E946F010E94D702E6CFCE
:1006E00081E00E946F010E94F002E0CF82E037C0FB
:1006F00083E035C084E033C085E031C086E02FC0A0
:1007000087E02DC088E02BC089E029C08AE027C09F
:100710008BE025C08CE023C08DE021C08EE01FC09F
:100720008FE01DC080E11BC081E119C082E117C0CC
:1007300083E115C084E113C085E111C086E10FC0DB
:1007400087E10DC088E10BC089E109C08AE107C0DB
:100750008BE105C08CE103C08DE101C08EE10E94F8
:100760006F01A4CF8FE10E946F010E9409039ECF09
:10077000991B79E004C0991F961708F0961B881FF3
:100780007A95C9F78095089597FB092E07260AD018
:1007900077FD04D00CD006D000201AF47095619536
:1007A0007F4F0895F6F7909581959F4F0895AA1B66
:1007B000BB1B51E107C0AA1FBB1FA617B70710F04C
:1007C000A61BB70B881F991F5A95A9F7809590957E
:0A07D000BC01CD010895F894FFCF9D
:1007DA001F1F1F1F1F1F1F1F000000000000000017
:1007EA0000000000000000000000000000000000FF
:1007FA0000000000000000000000000000000000EF
:10080A0000000000000000000000000000000000DE
:00000001FF
