:100000002CC046C045C044C043C042C041C040C0EF
:100010003FC03EC03DC03CC03BC03AC039C038C004
:1000200037C036C035C098C07FC0A8C097C09EC03A
:100030007BC07AC079C078C077C076C075C074C004
:1000400073C072C071C08EC06FC08AC06DC06CC0FA
:100050006BC07CC07DC068C087C011241FBECFE5C7
:10006000D4E0DEBFCDBF10E0A0E6B0E0E4E8F1E010
:1000700002C005900D92A036B107D9F710E0A0E6B6
:10008000B0E001C01D92A236B107E1F71ED078C0E2
:10009000B7CF1BB81BB886E080BD8DE489B910BC12
:1000A00088E18AB908955F9BFECF8BB18CB108952A
:1000B0005D9BFECF8CB9089580EA8FBD83E18EBD34
:1000C00082EE94E097BD86BD0895CF92DF92EF92C5
:1000D000FF920F931F93F894DCDF80EA8FBD83E1DA
:1000E0008EBD82EE94E097BD86BD80EF81BB14BAD1
:1000F0008FEF87BB88EE93E02CE231E0F901319776
:10010000F1F70197D9F7789430E2C32E20E1D22E8F
:100110002CEB32E090E4E92E80E8F82E00E510EABE
:1001200070E642EE54E060E95F9BFECF8BB18CB18C
:10013000992787FD9095A92FB92FFC01E154F04034
:10014000EA31F10588F7ED5EFF4F099462BB01C00B
:1001500072BB59BD48BD0DC012BB09C002BB07C070
:1001600012BAE2CFF2BA03C0E2BADECFD2BA39BDD8
:1001700028BD88B599B59BBD8ABDD6CFC2BAD4CFAC
:04018000F894FFCF21
:00000001FF
