:1000000012C019C019C017C016C015C014C013C043
:1000100012C011C010C00FC00EC00DC00CC00BC06C
:100020000AC009C008C011241FBECFE5D4E0DEBF5E
:10003000CDBF32D051C0E4CF1F920F920FB60F92B6
:1000400011242F933F938F939F93EF93FF9384EF0C
:1000500091E099BD88BD88B599B59BBD8ABD8FE0FB
:1000600088BB80E682BB81E085BB80E29EE429E11B
:1000700030E0F9013197F1F70197D9F780EF82BBB2
:1000800018BAFF91EF919F918F913F912F910F900F
:100090000FBE0F901F901895789480E88BBF8CE06E
:1000A00085BF80EA8FBD83E18EBD82EE94E097BD6F
:1000B00086BD84EF91E099BD88BD88B599B59BBD9B
:1000C0008ABD81E084BB9FE097BB80EF81BB80E964
:0C00D00082BB98BB15BAFFCFF894FFCF9D
:00000001FF
