:100000000C942A000C9434000C9434000C943400AA
:100010000C9434000C9434000C9434000C94340090
:100020000C9434000C9434000C9434000C94340080
:100030000C9434000C9434000C9434000C94340070
:100040000C9434000C9434000C9434000C94340060
:100050000C94340011241FBECFE5D8E0DEBFCDBF25
:100060000E9436000C944F000C9400008FE08ABB75
:1000700071E020E43FE162E054E048E07BBBC9016D
:100080000197F1F76BBBC9010197F1F75BBBC901A0
:100090000197F1F74BBBC9010197F1F7EFCFF89446
:0200A000FFCF90
:00000001FF
