:1000000012C02CC02BC02AC029C028C027C026C0BF
:1000100025C024C023C023C021C020C01FC01EC0D3
:100020001DC01CC01BC011241FBECFE5D4E0DEBF25
:10003000CDBF10E0A0E6B0E0E6E4F1E002C005903C
:100040000D92AC36B107D9F710E0ACE6B0E001C0D4
:100050001D92A837B107E1F73CD073C0D1CF1F92F2
:100060000F920FB60F9211248F939F93EF93FF93EC
:10007000E0916C00F0916D005F9BFECF8CB1E25976
:10008000FF4F808380916C0090916D00019690935A
:100090006D0080936C00FF91EF919F918F910F9075
:1000A0000FBE0F901F90189589B990BD86E880BD4E
:1000B00088E18AB9579A08955F9BFECF8CB1089565
:1000C0005D9BFECF8CB9089501C08CB15F99FDCFC7
:1000D0000895DF93CF93CDB7DEB72A970FB6F89484
:1000E000DEBF0FBECDBFDE011196E0E6F0E08AE094
:1000F00001900D928150E1F7789487E690E0D4DF8B
:100100008EE690E080529946D9F480E090E09E011E
:100110002F5F3F4FF901E80FF91FE0815D9BFECF94
:10012000ECB901968A309105ACF301C08CB15F99AE
:10013000FDCF10926D0010926C0080E090E0EACF4D
:06014000FFCFF894FFCF91
:0C01460048692053756861617320000057
:00000001FF
