:100000000C942A000C943C000C943C000C943C0092
:100010000C943C000C943C000C943C000C943C0070
:100020000C943C000C943C000C943C000C943C0060
:100030000C943C000C943C000C943C000C943C0050
:100040000C943C000C943C000C943C000C943C0040
:100050000C943C0011241FBECFE5D8E0DEBFCDBF1D
:1000600010E0A0E6B0E001C01D92A436B107E1F7B0
:100070000E944D000C94CA000C94000086E886B9DA
:10008000089590E697B997B1982B97B9369A80EA78
:100090009FE00197F1F785B10895CF92DF92EF923B
:1000A000FF920F931F9386E886B98FEF81BB8FE095
:1000B00087BB30E6C32E60EA7FE02EEFD22E4FE002
:1000C00098E0E92E8CE0F82E0EE010E8B0ECA0EEFF
:1000D000F0EFE8EF5CEFC7B887B187B9369ACB018C
:1000E0000197F1F785B1282F30E02131310510F467
:1000F000D2BA05C0C9014197409718F452BB48BB1A
:10010000EACFC9018197409710F4E2BBF8CFC9014B
:10011000C197409710F4F2BBF2CFC90181549040CF
:10012000409710F4A2BBEBCFC90181559040409796
:1001300010F4B2BBE4CFC90181569040409710F44F
:1001400012BBDDCFC90181579040409710F412BA1D
:10015000D6CFC90181589040409718F412BA08BB15
:10016000BACFC90181599040409718F412BAF8BA31
:10017000B2CFC901815A9040409718F412BAE8BA38
:10018000AACF215B30402F34310508F0A4CF12BA3A
:0801900018BAA1CFF894FFCFCB
:00000001FF
