:100000000C942A000C943C000C943C000C943C0092
:100010000C943C000C943C000C943C000C943C0070
:100020000C943C000C943C000C943C000C943C0060
:100030000C943C000C943C000C943C000C943C0050
:100040000C943C000C943C000C943C000C943C0040
:100050000C943C0011241FBECFE5D8E0DEBFCDBF1D
:1000600010E0A0E6B0E001C01D92A436B107E1F7B0
:100070000E9458000C9472010C94000082E082BB34
:10008000089588E082BB08958AE082BB08958AE0E3
:1000900082BB089586E886B9089590E697B997B12E
:1000A000982B97B9369A3699FECF84B195B10895B9
:1000B0006F927F928F929F92AF92BF92CF92DF9278
:1000C000EF92FF920F931F93DF93CF93CDB7DEB7DD
:1000D00068970FB6F894DEBF0FBECDBF8FE081BB2F
:1000E00080E00E944D008B831C8281E00E944D00C5
:1000F0008D831E8282E00E944D008F83188683E0EC
:100100000E944D0089871A8684E00E944D008B87EB
:100110001C8685E00E944D008D871E8641E050E0E0
:10012000DE011396BE01655F7F4F14C020813181CF
:10013000828193818217930720F491838083338394
:1001400022833296E617F70789F74F5F5F4F4830F3
:10015000510511F0FD01EACF0D851E858B819C8133
:10016000080F191F1695079558E0652E4AE0742E62
:1001700080E00E944D0090E00817190718F080E019
:100180000E944D0081E00E944D0090E00817190781
:1001900020F431E0832E912C09C081E00E944D00B3
:1001A00090E08017910710F48824992482E00E943F
:1001B0004D0090E00817190720F42AE0A22EB12C78
:1001C00009C082E00E944D0090E08017910710F472
:1001D000AA24BB2483E00E944D0090E00817190771
:1001E00020F494E6C92ED12C09C083E00E944D0072
:1001F00090E08017910710F4CC24DD2484E00E9465
:100200004D0090E00817190728F488EEE82E83E0E7
:10021000F82E09C084E00E944D0090E080179107FD
:1002200010F4EE24FF2485E00E944D0090E00817B2
:10023000190718F085E00E944D00C501880D991D31
:100240008C0D9D1D8E0D9F1D8F36910509F443C0A9
:1002500080379105B8F48C30910548F48A309105C7
:10026000D0F50097A9F1019709F082CF34C0853607
:10027000910571F18E36910559F18436910509F099
:1002800077CF2DC023E0843F920768F423E0823FBC
:100290009207F0F423E0883E920709F1895E9340CB
:1002A00009F066CF15C024E08D34920789F024E070
:1002B0008E34920728F48C54944009F059CF0FC023
:1002C00024E08635920759F08755944009F050CFC5
:1002D00072BA72BA4DCF82E082BB82BB49CF62BA9A
:0802E00062BA46CFF894FFCF8B
:00000001FF
