:1000000012C08FC039C01FC01EC01DC01CC01BC085
:100010001AC019C018C017C016C015C014C013C02C
:1000200012C011C010C011241FBECFE5D4E0DEBF46
:10003000CDBF10E0A0E6B0E001C01D92A236B1072E
:10004000E1F732D09BC0DCCF1BB81BB886E080BD87
:100050008DE489B910BC88E18AB908955F9BFECF11
:100060008BB18CB1089580EA8FBD83E18EBD82EEA5
:1000700094E097BD86BD08951F920F920FB60F9220
:1000800011248F939F938CEB92E099BD88BD88B526
:1000900099B59BBD8ABD80EF82BB9F918F910F90D8
:1000A0000FBE0F901F901895F894CEDF80EA8FBD99
:1000B00083E18EBD82EE94E097BD86BD80EF81BB6B
:1000C00081E184BB8FEF87BB789480EC8BBF8AE0A3
:1000D00085BF70E92CEB32E060E650EA40E55F9BBB
:1000E000FECF8BB18CB18335D1F084352CF48134C3
:1000F00061F08434A1F70BC0873519F0883579F7A2
:1001000002C072BB05C062BB03C052BB01C042BB90
:1001100039BD28BD88B599B59BBD8ABDE0CF12BA5F
:10012000DECF1F920F920FB60F9211242F933F93A1
:100130004F935F936F937F938F939F93AF93BF93EF
:10014000EF93FF938CEB92E099BD88BD88B599B58C
:100150009BBD8ABD80EF82BBA7DFFF91EF91BF916E
:10016000AF919F918F917F916F915F914F913F914F
:100170002F910F900FBE0F901F901895F894FFCFFE
:00000001FF
