:1000000012C024C023C022C021C020C01FC01EC0F7
:100010001DC01CC01BC01AC019C018C017C016C014
:1000200015C014C013C011241FBECFE5D4E0DEBF3D
:10003000CDBF10E0A0E6B0E0E4E3F4E002C005903C
:100040000D92A038B107D9F702D0F2C1D9CF2F92C3
:100050003F924F925F926F927F928F929F92AF9258
:10006000BF92CF92DF92EF92FF920F931F93DF9395
:10007000CF93CDB7DEB7A0970FB6F894DEBF0FBE13
:10008000CDBF8FEF81BB8FE087BBDE011196E0E62D
:10009000F0E080E201900D928150E1F720E030E045
:1000A0009DE0592E4CE251E082E2B82E0CE1E02EA8
:1000B00012E2D12EBBE26B2E712C6C0E7D1EADE0D8
:1000C000CA2EFCE04F2EEAE03E2E76E0272E0CE012
:1000D0001AE066E0F62E27C08FEF82BB58BA88EE92
:1000E00093E0FA013197F1F70197D9F78BE088BBDC
:1000F00088EE93E0FA013197F1F70197D9F787E09D
:1001000088BB88EE93E0FA013197F1F70197D9F7B0
:100110008BE088BB88EE93E0FA013197F1F7019705
:10012000D9F72F5F3F4F2B303105B4F220E030E09C
:1001300061E071EC18BA8CE182BB88EE93E0FA01C1
:100140003197F1F70197D9F768BBB2BA88EE93E01F
:10015000FA013197F1F70197D9F718BA72BB88EE17
:1001600093E0FA013197F1F70197D9F768BBB2BA7A
:1001700088EE93E0FA013197F1F70197D9F72F5FF5
:100180003F4F2B303105B1F620E030E0B1E0A1E186
:1001900074E468E8B8BBA2BB88EE93E0FA0131973B
:1001A000F1F70197D9F7B2BA88EE93E0FA013197E7
:1001B000F1F70197D9F772BB88EE93E0FA01319716
:1001C000F1F70197D9F762BB88EE93E0FA01319716
:1001D000F1F70197D9F72F5F3F4F27303105D1F65F
:1001E000DE0111963BE027E08C9182BB58BA8EEE7F
:1001F00092E0FA013197F1F70197D9F738BB8EEE0B
:1002000092E0FA013197F1F70197D9F728BB8EEE0A
:1002100092E0FA013197F1F70197D9F71296A615F6
:10022000B70511F720E030E06FEF75E562BB48BA23
:10023000CA010197F1F772BB38BACA010197F1F709
:1002400062BB28BACA010197F1F72F5F3F4F8EE4D6
:100250002132380759F7DFC0E2BA08BBCA0101975B
:10026000F1F702BB18BBCA010197F1F7E2BAF8BA7D
:10027000CA010197F1F72F5F3F4F81E0213938071D
:1002800059F720E030E0D2BAC8BACA010197F1F7B5
:1002900092BAA8BACA010197F1F7D2BAB8BBCA019B
:1002A0000197F1F72F5F3F4F81E02139380759F768
:1002B00020E030E0A2BB08BBCA010197F1F782BA87
:1002C00018BBCA010197F1F7A2BBF8BACA0101979E
:1002D000F1F72F5F3F4F83E0293E380759F720E0C1
:1002E00030E0E8E0E2BA08BBCA010197F1F7E2BBEF
:1002F00018BBCA010197F1F7F8BACA010197F1F7E3
:100300002F5F3F4F81E02139380761F720E030E06F
:10031000D2BAC8BACA010197F1F712BAA8BACA018B
:100320000197F1F7B8BBCA010197F1F72F5F3F4F73
:1003300081E02139380761F720E030E0E0E8A2BB36
:1003400008BBCA010197F1F7E2BB18BBCA010197CC
:10035000F1F7F8BACA010197F1F72F5F3F4F83E039
:10036000293E380761F720E030E0E4E0E2BA08BB5C
:10037000CA010197F1F7E2BB18BBCA010197F1F777
:10038000E2BAF8BACA010197F1F72F5F3F4F81E057
:100390002139380759F720E030E0D2BAC8BACA018B
:1003A0000197F1F792BA18BBCA010197F1F7D2BAD7
:1003B000B8BBCA010197F1F72F5F3F4F81E02139A8
:1003C000380759F720E030E0F1E0EEE0A2BB08BBCF
:1003D000CA010197F1F7F2BB18BBCA010197F1F707
:1003E000A2BBF8BACA010197F1F7E8BB2F5F3F4FF4
:1003F00083E0293E380751F788E893E1FA01319705
:10040000F1F70197D9F76F5F7F4F6630710569F497
:1004100020E030E088CE60E070E022E0922E9BE0A9
:10042000A92EB7E0A1EC81E8882E20E030E014CFBF
:04043000F894FFCF6E
:10043400830054007000690036002800070034006F
:100444006700290084004300100033005400450075
:00000001FF
